:21000000020000000000000000000000000000000000000000000000000000000000000008D5
:2100010001FFFFFFFFFFFFFFFFFFFFFFFFFFFFFFFFFFFFFFFFFFFFFFFFFFFFFFFFFFFFFF00FC
:21000200000000000000000000000000000000000000000000000000000000000000000000DD
:21000300000000000000000000000000000000000000000000000000000000000000000000DC
:21000400000000000000000000000000000000000000000000000000000000000000000000DB
:21000500000000000000000000000000000000000000000000000000000000000000000000DA
:00000001FF
