:110000000000000000000000000000000000000008E7
:110001000002000000000000000000000000000000EC
:11000200FFFFFFFFFFFFFFFFFFFFFFFFFFFFFFFF00FD
:110003000001FFFFFFFFFFFFFFFFFFFFFFFFFFFFFFFA
:110004000000000000000000000000000000000000EB
:110005000000000000000000000000000000000000EA
:110006000000000000000000000000000000000000E9
:110007000000000000000000000000000000000000E8
:00000001FF
